:020000040000FA
:10000000A304020A6400A305C60AA304C20BA30446
:0A0010006A0BA304000BA304C50A49
:10018A00A4043000060C90000306000807022400AD
:10019A0000022F00A40490022E00010C2D00D70AA1
:1001AA0003046D03EE02D50A0D020F012F000702A8
:1001BA0024000F02200007022400000206000008A3
:1001CA0068000402A4023F0EE201000801082308A5
:1001DA00450867088908AB08CD08EF0811083308F5
:1001EA00550877089908BB08DD08FF082108430865
:1001FA0065088708A9082700060C87000306000877
:10020A00A4041102240000022F0087022E00010C10
:10021A002D00110B03046D03EE020F0B0D02FF0FED
:10022A004F012F00A404110224000F0220004A0BE0
:10023A00A4041007230BA4040605630BA4040604F4
:10024A00630BA40410072C0BA4044605630BA40437
:10025A004604630BA4041007350BA4048605630B3C
:10026A00A4048604630BA40410073E0BA404260509
:10027A00630BA4042604630BA4041007470BA4040D
:10028A00A605630BA404A604630B07022E006F00E5
:10029A000F02000F4306520B690B0E02000F4306B2
:1002AA001D0B010F4306380B030F4306260B060FDF
:1002BA0043062F0B010F4306410B690BA4041102DD
:1002CA002400000206000008000827000707700B38
:1002DA00A404A605720BA404A604020CA40430000C
:1002EA00F002750B780BA4041E024306860B140C4D
:1002FA00A4043100790C3000F002810BF102810B69
:10030A000000A4042605020CA4043000F0028B0BA2
:10031A008E0BA4041E0243069C0B140CA404310089
:10032A00790C3000F002970BF102970B0000A4043D
:10033A002604020CA4043000F002A10BA40BA404AE
:10034A001E024306B20B140CA4043100790C3000CF
:10035A00F002AD0BF102AD0B0000A404A6041E02CC
:10036A0043060008140CA4043100790C3000F00292
:10037A00BC0BF102BC0B00000008A4048605020CA9
:10038A00A4043000F002C70BCA0BA4041E024306E1
:10039A00D80B140CA4043100790C3000F002D30BF2
:1003AA00F102D30B0000A40486041E0243060008CF
:1003BA00140CA4043100790C3000F002E20BF102B3
:0603CA00E20B0000000838
:10058C00130C2400A304E609A305A4043500140CE1
:10059C002400A304E609A305A4043600150C2400CA
:1005AC00A304E609A305A4043E003F0C3D00C00CC7
:1005BC00020070001D0C3100000CA3040909A305F6
:1005CC00A40470001D0C3100040CA3040909A3053C
:1005DC00A40470001D0C3100020CA3040909A3052E
:1005EC00A40470001D0C3100050CA3040909A3051B
:1005FC00A40470001D0C3100010CA3040909A3050F
:10060C00A404060578001502980003061D0B0D0CBA
:10061C00A4043300FB0C3200F202120BF302120B97
:10062C000000010C2F000F02A404F801090B460571
:10063C007900040C990003062F0BA3040509A305EC
:10064C00010C2F000F02A404F901040C99000307FC
:10065C00230B1E0243063C0B4E0CA4043300EA0C85
:10066C003200F202370BF302370B3C0B010CA304E4
:10067C000709A305000CA3040709A305010CA30497
:10068C000709A305A4041E024306560B4E0CA40432
:10069C003300EA0C3200F202510BF302510B560BF1
:1006AC00A4047A000F0C9A000306690B000CA30437
:1006BC000709A305010C2F000F02A404FA010F0C6B
:1006CC009A0003075C0B1E024306760B4E0CA40427
:1006DC003300EA0C3200F202710BF302710B760B51
:1006EC00A4047B00120C9B000306A70B070C3C0018
:1006FC00FC069F0B9C022F001B022E00010CCE014E
:10070C002400A304E609A3052E008E0B03042E037C
:10071C00EF028C0B0E02010EA40437001702A30487
:10072C000709A305FF0C2F000F02A404FC01FC0712
:10073C00800B010C2F000F02FB01120C9B00030716
:10074C007C0B46041D0C2700010CA3040B09A3050C
:10075C001D0C2700050CA3040B09A3051D0C270079
:10076C00020CA3040B09A3051D0C2700040CA30405
:10077C000B09A3051D0C2700000CA3040B09A305F2
:10078C00A40416024306FC0B70001D0C3100050C72
:10079C00A3040909A305A40470001D0C3100010C6D
:1007AC00A3040909A305A4042605A604030CA404A8
:1007BC0034008A0C3300550C3200F202E30BF302C6
:1007CC00E30BF402E30B0000A4042604A605030CBF
:1007DC00A40434008A0C3300550C3200F202F40BE2
:1007EC00F302F40BF402F40B0000D90B0300A30486
:0207FC00000AF1
:021FFE00EAFFF8
:00000001FF
